:020000040800F2
:1000000000000220B9020008BF020008C302000875
:1000100035030008390300088103000800000000D0
:10002000000000000000000000000000F11E0008B9
:10003000CD03000800000000911F0008F51F000814
:10004000E5030008E5030008E5030008E5030008F0
:10005000E5030008E5030008E5030008E5030008E0
:10006000E5030008E5030008E5030008E5030008D0
:10007000E5030008E5030008E5030008E5030008C0
:10008000E5030008E5030008E5030008E5030008B0
:10009000E5030008E5030008E5030008E5030008A0
:1000A000E5030008E5030008E5030008E503000890
:1000B000E5030008E5030008E5030008E503000880
:1000C000E5030008E5030008E5030008E503000870
:1000D000E5030008E5030008E5030008E503000860
:1000E000E5030008E5030008E5030008E503000850
:1000F000E5030008E5030008E5030008E503000840
:10010000E5030008E5030008E5030008E50300082F
:10011000E5030008E5030008E5030008E50300081F
:10012000E5030008E5030008E5030008E50300080F
:10013000E5030008E5030008E5030008E5030008FF
:10014000E5030008E5030008E5030008E5030008EF
:10015000E5030008E5030008E5030008E5030008DF
:10016000E5030008E5030008E5030008E5030008CF
:10017000E5030008E5030008E503000800000000AF
:10018000E5030008E503000800B583B001F006FAB6
:10019000384B394A1360394A1360394906E052F83E
:1001A000041B43F8041B9842F9D86146354B994229
:1001B00005D20A684B6801F10C0C8868F3E72E4BF6
:1001C0001A68314B9A4200D0FEE72C4B1A682F4B2D
:1001D0009A42F9D1274B2E4A13602E4A13602E4AB9
:1001E00000E002462D4B9A4209D2104650F8083BD7
:1001F00051689942F5D9002243F8042BF9E7244BC2
:100200001B6813B9234B1B6803B1FEE701F07AFAB0
:10021000694601A800F0C8FE214C224BE41AA41044
:10022000002504E01F4B53F8253098470135AC42B8
:10023000F8DC1D4C1D4BE41AA410002504E01B4BF8
:1002400053F8253098470135AC42F8DC0099019805
:1002500001F018FC0546164C164BE41AA41004E0F5
:10026000013C144B53F824309847002CF8DC284606
:1002700000F036FEBABADECA00000020A00000205E
:10028000E8030008000400087856341232547698C7
:10029000A4000020AC310120000400081004000874
:1002A00010040008100400081004000810040008DE
:1002B000100400081004000808B5FFF765FF00BE31
:1002C000FEE71EF0040F0CBFEFF30880EFF3098088
:1002D0007146414A10472DE9F04182B004460D466F
:1002E000124B5F6BD3F838809E6A1B6B13F0020FC2
:1002F00003D00E4BDB6A002B0BDB0D4801F028F816
:10030000009543463A463146204601F05DF800BE6E
:10031000FEE74BF6AB6101F0D1F80028EDD0034BBE
:100320004FF00042DA6202B0BDE8F08100ED00E07B
:100330009451000800BEFEE71EF0040F0CBFEFF35F
:100340000880EFF309807146244A10472DE9F041F7
:1003500082B004460D46084B5F6BD3F838809E6A26
:10036000064800F0F5FF009543463A4631462046E0
:1003700001F02AF800BEFEE700ED00E0A4510008FD
:100380001EF0040F0CBFEFF30880EFF309807146F5
:10039000134A10472DE9F04182B004460D46084B40
:1003A0005F6BD3F838809E6A064800F0D1FF009555
:1003B00043463A463146204601F006F800BEFEE7C5
:1003C00000ED00E0B051000800BEFEE700BEFEE711
:1003D00000BEFEE770470000D70200084D0300088A
:0803E0009503000800BEFEE7D2
:1003E800AC55000800000020A4000020AC5500080F
:1003F8000000001000000010A4000020B03101200F
:080408000000001000000010CC
:1004100010B504460E4B1A784FF47A73B3FBF2F31F
:100420000C4A1068B0FBF3F000F0AEF868B90F2C7E
:1004300001D901200AE0002221464FF0FF3000F0F0
:100440007FF8054B1C60002000E0012010BD00BFBC
:10045000040000200C0000200800002008B50B4B11
:100460001A6842F400721A601A6842F480621A60D4
:100470001A6842F480721A60032000F043F80F20DB
:10048000FFF7C6FF01F0CAFB002008BD003C024098
:10049000014B1868704700BFA8000020002808DB47
:1004A0000901C9B200F1604000F5614080F8001315
:1004B000704700F00F000901C9B2014B1954704791
:1004C00014ED00E000B500F00700C0F1070CBCF12E
:1004D000040F28BF4FF0040C031D062B0FD9C31EB9
:1004E0004FF0FF3E0EFA0CF021EA000199400EFA9F
:1004F00003FE22EA0E0241EA02005DF804FB00233B
:10050000EEE7000010B50446C31E042B0FD80A4ABC
:10051000D36823F4E0631B041B0C240204F4E0649E
:10052000234343F0BF6343F40033D36010BD9221F3
:10053000024801F0EFF8EAE700ED00E0BC4F0008E8
:1005400070B506460C4615460F2A0ED80F2C11D84A
:100550000B4BD8682A462146C0F30220FFF7B2FFB2
:1005600001463046FFF79AFF70BDAA21054801F009
:10057000D1F8EBE7AB21034801F0CCF8E8E700BF86
:1005800000ED00E0BC4F00080138B0F1807F0BD2D5
:100590004FF0E0235861054AF02182F82310002033
:1005A000986107221A6170470120704700ED00E052
:1005B00008B5042807D068B94FF0E022136923F08A
:1005C0000403136108BD4FF0E022136943F00403F4
:1005D0001361F7E740F2C911014801F09BF8EBE71E
:1005E000BC4F0008002800F0588270B582B0044665
:1005F00003680F2B39D8236813F0010F4DD06368BF
:100600002BB1B3F5803F02D0B3F5A02F32D1804B90
:100610009B6803F00C03042B36D07D4B9B6803F0E2
:100620000C03082B2BD06368B3F5803F5FD0B3F584
:10063000A02F62D0764B1A6822F480321A601A68B2
:1006400022F480221A606368002B60D0FFF720FF3D
:1006500005466F4B1B6813F4003F1ED1FFF718FFD0
:10066000401B6428F5D903201EE2E821694801F007
:1006700051F8C0E7ED21674801F04CF8C7E7644B3B
:100680005B6813F4800FCED0614B1B6813F4003FFE
:1006900003D06368002B00F00282236813F0020F7E
:1006A00066D0E368012B41D823691F2B44D8584BEF
:1006B0009B6813F00C0F4AD0554B9B6803F00C035A
:1006C000082B3FD0E368002B77D0534B01221A60F0
:1006D000FFF7DEFE05464E4B1B6813F0020F63D199
:1006E000FFF7D6FE401B0228F5D90320DCE1484A7B
:1006F000136843F480331360A5E7454B1A6842F44E
:1007000080221A601A6842F480321A609BE7FFF771
:10071000BFFE05463E4B1B6813F4003FBDD0FFF7FC
:10072000B7FE401B6428F5D90320BDE140F21F113C
:10073000384800F0EFFFB7E74FF49071354800F00C
:10074000E9FFB4E7324B5B6813F4800FBAD1304B4A
:100750001B6813F0020F03D0E368012B40F0A18166
:100760002B4A136823F0F803216943EAC10313609D
:10077000236813F0080F51D06369012B2FD86369E8
:100780009BB3254B0122C3F8802EFFF781FE05465F
:100790001F4B5B6F13F0020F40D1FFF779FE401B38
:1007A0000228F5D903207FE1194A136823F0F803E2
:1007B000216943EAC1031360DAE7174B00221A608C
:1007C000FFF766FE0546124B1B6813F0020FCFD0F1
:1007D000FFF75EFE401B0228F5D9032064E14FF4C9
:1007E000B0710C4800F096FFC9E70B4B0022C3F82C
:1007F000802EFFF74DFE0546054B5B6F13F0020F91
:100800000CD0FFF745FE401B0228F5D903204BE131
:1008100000380240F04F000800004742236813F000
:10082000040F7CD0A368012B01D9052B38D1A44B30
:100830001B6C13F0805F39D100230193A04B1A6C1D
:1008400042F080521A641B6C03F080530193019BA9
:1008500001259C4B1B6813F4807F29D0A368012BD2
:100860003AD0052B3ED0964B1A6F22F001021A6740
:100870001A6F22F004021A67A368002B3CD0FFF71E
:1008800007FE06468E4B1B6F13F0020F45D1FFF794
:10089000FFFD801B41F288339842F3D9032003E126
:1008A0004FF4C671884800F035FFC0E70025D0E757
:1008B000844A136843F480731360FFF7E9FD06462A
:1008C000804B1B6813F4807FC8D1FFF7E1FD801BCC
:1008D0000228F5D90320E7E0794A136F43F00103BA
:1008E0001367C9E7764B1A6F42F004021A671A6F52
:1008F00042F001021A67BFE7FFF7CAFD0646704BD8
:100900001B6F13F0020F08D0FFF7C2FD801B41F2EE
:1009100088339842F3D90320C6E0002D3BD1A36968
:10092000022B3ED8A369002B00F0BD80644A926878
:1009300002F00C02082A00F09080022B79D1E369C2
:1009400013B1B3F5800F32D1236A3F2B35D8636AD8
:10095000323BB3F5BF7F36D8A26A082A39D84FF4A4
:10096000AA73D34013F0010F33D0E36A023B0D2B7F
:1009700035D8564B00221A66FFF78AFD0546504BC4
:100980001B6813F0007F30D0FFF782FD401B022868
:10099000F5D9032088E04A4A136C23F0805313648E
:1009A000BDE740F2CF11484800F0B4FEBAE74FF47B
:1009B000EC71454800F0AEFEC6E740F2D91142485E
:1009C00000F0A8FEC3E74FF4ED713F4800F0A2FE2F
:1009D000C2E740F2DB113C4800F09CFEC5E74FF453
:1009E000EE71394800F096FEC3E7E369226A1343CB
:1009F000626A43EA8213A26A5208013A43EA024356
:100A0000E26A43EA02632E4A5360304B01221A66BF
:100A1000FFF73EFD04462A4B1B6813F0007F06D10A
:100A2000FFF736FD001B0228F5D903203CE000202B
:100A30003AE0264B00221A66FFF72AFD0446204BB7
:100A40001B6813F0007F06D0FFF722FD001B022871
:100A5000F5D9032028E0002026E0012B26D0184BF2
:100A60005B6803F48001E269914221D103F03F0207
:100A7000216A8A421ED1616A47F6C0721A408A42D0
:100A80001AD103F44032A16A8A4217D103F070638D
:100A9000E26A93421CD1002006E001207047012049
:100AA00002E0012000E0002002B070BD0120FBE761
:100AB0000120F9E70120F7E70120F5E70120F3E73E
:100AC0000038024000700040F04F0008000047422C
:100AD0000120E9E708B5334B9B6803F00C03042BB6
:100AE0005BD0082B5BD12F4B5A6802F03F025B684A
:100AF00013F4800F2CD02B4B5868C0F388104FEAAA
:100B0000401CBCEB000C6EEB0E0E4FEA8E1343EA5A
:100B10009C634FEA8C11B1EB0C0163EB0E03DB001D
:100B200043EA5173C90011EB000C43F10003590271
:100B300000234FEA4C2041EADC5102F027FE194B1A
:100B40005B68C3F3014301335B00B0FBF3F008BD06
:100B5000144B5868C0F388104FEA401CBCEB000CE3
:100B60006EEB0E0E4FEA8E1343EA9C634FEA8C1134
:100B7000B1EB0C0163EB0E03DB0043EA5173C900D8
:100B800011EB000C43F10003990200234FEA8C2083
:100B900041EA9C5102F0FAFDD1E70348D7E7034848
:100BA000D5E700BF0038024000127A000024F400AC
:100BB000002800F0FA8070B50D4604460368013B3A
:100BC0000E2B32D8072D36D87C4B1B6803F00F0351
:100BD000AB4208D2EBB2794A1370136803F00F03EB
:100BE000AB4240F0E480236813F0020F3ED013F0D4
:100BF000040F04D0724A936843F4E053936023686F
:100C000013F0080F04D06E4A936843F46043936076
:100C1000A36823B3C02B22D016D8A02B1FD010D886
:100C2000802B1CD0902B1AD014E040F25121654843
:100C300000F070FDC6E740F25221624800F06AFD04
:100C4000C2E7B02B0BD005E0E02B08D0F02B06D08C
:100C5000D02B04D040F275215A4800F05BFD584A71
:100C6000936823F0F003A1680B439360236813F0AB
:100C7000010F3CD06368032B25D86368012B28D073
:100C80009A1E012A2CD94E4A126812F0020F00F067
:100C900090804B498A6822F0030213438B60FFF770
:100CA000F7FB0646464B9B6803F00C036268B3EB08
:100CB000820F1CD0FFF7ECFB801B41F28833984277
:100CC000F0D9032064E04FF41F713E4800F022FD8C
:100CD000D3E73B4A126812F4003FDAD1012057E013
:100CE000374A126812F0007FD3D1012050E0334B15
:100CF0001B6803F00F03AB4207D9EAB22F4B1A70FF
:100D00001B6803F00F03AB4255D1236813F0040FA7
:100D100014D0E3685BB1B3F5805F08D0B3F5A05F92
:100D200005D0B3F5C05F02D0B3F5E05F31D1244AFE
:100D3000936823F4E053E1680B439360236813F056
:100D4000080F15D023695BB1B3F5805F08D0B3F508
:100D5000A05F05D0B3F5C05F02D0B3F5E05F1ED150
:100D6000174A936823F46043216943EAC1039360FF
:100D7000FFF7B0FE124B9B68C3F30313124AD35C18
:100D8000D840124B1860124B1868FFF741FB002047
:100D900070BD40F2BA210B4800F0BCFCC7E740F23E
:100DA000C121084800F0B6FCDAE7012070470120B5
:100DB000EEE70120ECE70120EAE700BF003C02403B
:100DC00000380240F04F00085C5300080C0000207F
:100DD00008000020014B1868704700BF0C0000207D
:100DE00000B583B08C46194652B11446064B0194A7
:100DF000009363460246054800F0AAFA00F00AF89C
:100E0000034B1C46F3E700BF205000083050000899
:100E1000EC51000808B5034800F0B4FA012000F0D6
:100E20005FF800BF6050000808B503460C4A12681E
:100E30005AB10B4A1068033323F003030344094AF1
:100E4000934206D8064A136008BD054A0649116058
:100E5000EFE703F083F90C2303604FF0FF30F3E773
:100E6000AC00002000FC0120B031012030B513247B
:100E7000002520462946ABBE0446204630BD38B585
:100E8000044603F06BF90546FFF7F0FF28602046A3
:100E900038BDB0F1FF3F00D0704708B5FFF7EFFF56
:100EA00008BD000010B504460B4B186808B1436834
:100EB0005BB1132C0CD8094B53F83430B3F1FF3F1E
:100EC00008D0064800EBC40010BD02F0E1FEF0E7D8
:100ED0000020F9E70020F7E750000020340100204F
:100EE00000B530B9044D182420462946ABBE04464F
:100EF000FEE7024DF7E700BF2600020023000200D4
:100F00002DE9F04184B0234F019703260396002377
:100F10000293012401AD20462946ABBE80461E4BFC
:100F2000C3F80080019703960423029320462946C4
:100F3000ABBE8046194BC3F8008001970396082387
:100F4000029320462946ABBE0446154B1C60B4F103
:100F5000FF3F01D000230AE0104B1A68104B1A60C3
:100F6000F8E7104A4FF0FF3142F833100133132BEA
:100F7000F7DD0C4B084A12681A6000225A600749D4
:100F800009689960DA600649096819615A6104B014
:100F9000BDE8F08174500008300100202C010020D1
:100FA00028010020340100202DE9F04383B0814660
:100FB00088462A4B00934F23019315276C463846E9
:100FC0002146ABBE0746AFBB244B002283F84F201F
:100FD000009A3E463C463D4607E001321E46204B05
:100FE00043F8252001350124013292F90030FBB18C
:100FF00064B91C49C9560029F6DB092BF4D0082D29
:1010000016DC222BE9D0272BE9D1E6E736B19E4248
:10101000EAD1002313703E463C46E5E71149C95624
:10102000002901DB092BDFD1002313703446DBE7F5
:101030003DB900E00025094B00221A70084A1360F0
:101040000135074B002243F82520C9F80050C8F8A5
:101050000030FFF755FF03B0BDE8F083D800002053
:10106000B00000202C54000830B585B001900291EA
:101070000392062401AD20462946ABBE0446204615
:10108000FFF707FF05B030BD70B50D461446FFF7FA
:1010900009FF68B10646224629460068FFF7E4FFCB
:1010A000B0F1FF3F03D07368201A0344736070BD32
:1010B00003F054F8092303604FF0FF30F7E7F0B571
:1010C00083B00C461546FFF7EDFEC0B10646022D73
:1010D0001CD8012D21D0022D29D033680093019412
:1010E0000A256F4628463946ABBE05462846FFF717
:1010F000D0FE00282BDB7460204603B0F0BD03F067
:101100002DF8092303604FF0FF30F6E703F026F8CF
:10111000162303604FF0FF30EFE74368E418DCD597
:1011200003F01CF8162303604FF0FF30E5E7036877
:1011300000930C256F4628463946ABBE0546284627
:10114000FFF7A7FEB0F1FF3FD7D00444C5E74FF04B
:10115000FF30D2E708B5FFF7B2FF08BD30B585B064
:10116000019002910392052401AD20462946ABBEB1
:1011700004462046FFF78DFE05B030BD70B50D4624
:101180001446FFF78FFE70B10646224629460068D6
:10119000FFF7E4FF031E11DB7268E01A024472607D
:1011A0009C4207D070BD02F0D9FF092303604FF0C5
:1011B000FF30F7E70020FFF762FEF3E74FF0FF3064
:1011C000F0E730B583B00190022401AD20462946F6
:1011D000ABBE04462046FFF75CFE03B030BD000006
:1011E00038B50446FFF75EFE80B10546601E012853
:1011F00004D80C4B9A681B699A420ED02868FFF7F6
:10120000E0FF10B94FF0FF332B6038BD02F0A6FFAE
:10121000092303604FF0FF30F7E74FF0FF332B60F7
:101220000020F2E73401002070B50C46FFF73AFECB
:10123000A8B10646636843F4005363604FF48063CB
:10124000A3640C2528463146ABBE05462846FFF769
:1012500020FEB0F1FF3F01D02061002070BD02F000
:101260007DFF092303604FF0FF30F7E738B50546EF
:101270000C4658220021204602F0F4FE2146284662
:10128000FFF7D2FF38BDF0B50C4650B10646002737
:10129000112528463946ABBE0546EB17356073600D
:1012A000B76014B10023236063600020F0BD38B53F
:1012B000FFF7F8FD80B10546092420462946ABBE5C
:1012C00004462046012C06D002F048FF0446FFF7F2
:1012D000CDFD2060002038BD02F040FF09230360EF
:1012E0000020F8E72DE9F04385B004460F46435649
:1012F0003BBB042528462146ABBE0546384605B013
:10130000BDE8F08314F901CB03F110026A4402F83E
:1013100010CC0133AB42F5D310336B44002203F8F9
:10132000102C4FF00408E94640464946ABBE8046C3
:10133000761B002EE2D03546102E28BF1025002344
:10134000E8E70E46F5E708B5FFF7CCFF08BD00005B
:101350000FB400B583B004AB53F8042B0193802184
:10136000074802F0DDFD002804DC03B05DF804EB63
:1013700004B0704701460248FFF7E5FFF5E700BFFC
:10138000D801002010B5044602F009FF01462046AE
:10139000FFF7D9FF01210248FFF7D5FF10BD00BFBD
:1013A00010510008BFF34F8F0549CA6802F4E0628C
:1013B000044B1343CB60BFF34F8F00BFFDE700BF6B
:1013C00000ED00E00400FA05F8B504460D461746A6
:1013D0001E462748FFF7BCFF21682648FFF7B8FFE5
:1013E00061682548FFF7B4FFA1682448FFF7B0FF04
:1013F000E1682348FFF7ACFF21692248FFF7A8FF07
:1014000061692148FFF7A4FFA1692048FFF7A0FF09
:10141000E1691F48FFF79CFF1E48FFF799FF294627
:101420001D48FFF795FF1D4CE16A1D48FFF790FF2F
:10143000216B1C48FFF78CFFE16B1B48FFF788FF0F
:1014400015F0800F0AD115F4004F0CD11748FFF7A3
:101450007FFF06991648FFF77BFFF8BD3946154810
:10146000FFF776FFEFE731461348FFF771FFEDE72F
:10147000785000088850000898500008A8500008CC
:10148000B8500008C8500008D8500008E8500008BC
:10149000F8500008085100081451000800ED00E061
:1014A00024510008345100084451000874510008C8
:1014B0007C510008545100086451000838B5836914
:1014C0001B888B4201D0002038BD04460368456864
:1014D000013B302B5ED8DFE803F03B211C1C53306E
:1014E000332D19195D19191919193619245D192780
:1014F0005D395D5D5D5D5D5D5D5D5D5D5D5D5D5D40
:101500005D5D5D5D5D5D5D5D5D1919004FF0FF33F3
:101510000360A3690233A3610120D5E700230360C0
:10152000F7E700230360F4E700232B606B60AB60F8
:10153000EB60EEE700230360EBE7AB680360E8E7EE
:1015400000230360E5E700230360E2E7FFF72AFFDB
:101550001149286802F00BFE40B96B6813B90123EA
:101560002360D6E7042B05D0082B06D04FF0FF33BD
:101570002360CEE702232360CBE703232360C8E781
:101580002B68023B012B02D9AB680360C1E7002343
:101590000360BEE7002097E77450000808B500F02C
:1015A00009F8024A024B9A6008BD00BF000000081B
:1015B00000ED00E0024B4FF000629A60704700BF00
:1015C00000ED00E0224B9B6803F00C03042B11D0CC
:1015D000082B13D0002B37D11E4B1F4A1A601C4B0F
:1015E0009B68C3F303131D4AD15C1A4A1368CB40AE
:1015F00013607047174B1A4A1A60F0E7144B59688A
:101600005A6802F03F0211F4800F13D0144BB3FB61
:10161000F2F30F4A5268C2F3881202FB03F30C4A3A
:101620005268C2F3014201325200B3FBF2F3094A9D
:101630001360D4E7084BB3FBF2F3054A5268C2F3D8
:10164000881202FB03F3EAE7024B034A1A60C6E77B
:10165000003802400C0000200024F4005C53000815
:1016600000127A0030B595B000240194224B1A6C18
:1016700042F080521A641B6C03F080530193019B6B
:1016800002941E4B1A6842F480421A601B6803F4ED
:1016900080430293029B012308934FF48033099304
:1016A0004FF480030F93082310934FF4A873119302
:1016B00002251295072313930E9508A8FEF792FFB3
:1016C0000F230393049505944FF4A05306934FF40E
:1016D00080530793052103A8FFF76AFAFFF77AFB07
:1016E000074BA3FB00308009FEF74EFF0420FEF7F6
:1016F0005FFF15B030BD00BF0038024000700040F1
:10170000D34D621008B5FEF7A9FEFFF7ABFFFFF758
:1017100059FF08BD08B50A4601460248FFF718FE02
:10172000FEE700BFC051000800B58BB011E0124ABF
:1017300013680133136002A802F048FB0F4B1C68CA
:1017400001F084FA0246002300930121204601F0B3
:101750009FFE00234FF0FF3219460948006800F051
:101760009EFF00231A4602A90648006800F097FF72
:101770000128DCD0E2E700BF84020020A0020020A4
:10178000B0020020C002002010B501F0ECFF0023E1
:101790001A461946024C54F8200000F056FE10BDBF
:1017A000B402002038B505460C4602F0A7F9611BCB
:1017B000013190FBF1F301FB1300284438BD000018
:1017C00010B58AB004462BE0274A52F82430013382
:1017D00042F82430254B1B68254A52F82310254A2D
:1017E00052F82300FFF7DEFF234A52F8243001337A
:1017F00042F82430214A52F82430034442F824307D
:101800004FF47A7303FB00F01D4BA3FB003200235F
:101810000093920904211B4850F8240001F038FE7F
:1018200000234FF0FF321946174850F8240000F00B
:1018300036FF01F00BFA0346144A1060144A2021C7
:1018400002A802F0CBFA00231A4602A91148006848
:1018500000F0FBFD0128B7D10F4A52F824300133C4
:1018600042F82430B6E700BF880200205C02002066
:1018700010000020280000206C02002078020020C8
:10188000D34D6210A4020020B402002060020020A8
:10189000F0510008C00200209402002010B582B070
:1018A000204A136801331360052B15D8002432E059
:1018B0004FF0FF33009300231A4605211A4850F8D1
:1018C000240001F0E5FD0134022CF1DD174802F09F
:1018D0007DFA002002F0D2F80024F5E7114B1B68D6
:1018E000134A52F82310134A52F82300FFF75AFF05
:1018F0004FF47A7303FB00F20F4BA3FB02324FF05D
:10190000FF330093002392090421074850F8240074
:1019100001F0BEFD0134022CE0DD084802F056FA69
:1019200002B010BD5C020020A4020020FC5100089F
:101930001000002028000020D34D6210085200083B
:1019400010B582B0404B1C681CBB00213F4B18688F
:1019500000F004FD3E4B00221A600DE000233D4ADA
:1019600042F824303C4A42F824303C4A42F82430C1
:101970003B4A42F824300134022CEFDD0023394A7F
:101980001360394A1360304A13680133136002B0A0
:1019900010BD304A136851680B4492681344324AB0
:1019A00013602D4A136851680B44926813442F4A00
:1019B00013602F4802F00AFA002214E0541C284B4E
:1019C00053F82230254951F8221093FBF1F300938C
:1019D000214B53F822301F4951F822202146254837
:1019E00002F08CF92246022AE8DD204B1A681E4BD1
:1019F0001968214802F082F91A4B19681F4802F051
:101A00007DF91F4802F0E2F900230DE000221149A0
:101A100041F82320104941F82320104941F82320A0
:101A20000F4941F823200133022BEFDD00210D4B3C
:101A300019600D4B19600D4B1960044B186800F0CC
:101A40008DFCFFF72BFFA2E758020020C002002008
:101A50005C02002094020020880200206C0200201A
:101A60007802002084020020680200206402002026
:101A700014520008305200088C520008D45200085A
:101A8000F452000870B586B0002002F0F3FA02F0BC
:101A900007F800223221032000F0B3FC3D4B186010
:101AA000FFF74EFF002426E0042300260196009352
:101AB0002346822202A9384801F04EF8374B1B68B2
:101AC000374A52F82310374A52F82300FFF76AFECC
:101AD0004FF47A7303FB00F1334BA3FB0131334B1B
:101AE0000093234632468909314801F0B7FC314B57
:101AF00043F824002C46022C12DC03220021012092
:101B000000F07FFC2C4B43F82400651C2B462B4A2D
:101B1000102102A802F062F9022CC5D00323C4E709
:101B200003220021012000F06CFC254B18600024EA
:101B3000019403230093234682222249224801F084
:101B40000BF8224B0093234622466421204801F0E3
:101B500085FC204B18600CE0164B53F8245001F024
:101B600075F80246002300930121284601F090FCFD
:101B70000134022CF0DD174B1C6801F067F80246B7
:101B8000002300930121204601F082FC01F014F8AB
:101B9000FEE700BFC0020020C11700085C02002061
:101BA0001000002028000020D34D62108917000883
:101BB0001C530008A4020020B402002010530008A7
:101BC000B00200202853000829170008D91B00087C
:101BD00034530008A002002008B500231A46194615
:101BE0000648006800F031FC054B1B68B3F57A7FAE
:101BF00000DA08BDFFF7A4FEFBE700BFB00200203B
:101C000084020020FEE7FEE700B583B000F02AF969
:101C10000190019B03B05DF804FB70477047000022
:101C2000124A12F0070F1ED0D11D21F00701C1F595
:101C3000963313440A460E48026000214160134463
:101C4000083B23F007030B48036059601960991A99
:101C500051601360084B1960084B1960084B4FF036
:101C600000421A6070474FF49633E4E7DC0200202C
:101C7000D4020020D0020020C8020020CC020020A4
:101C8000C4020020164B1A461B688342FBD35168DE
:101C900002EB010C844509D0416800EB010C63455F
:101CA00009D00360904219D0106070474068014429
:101CB00051601046F0E710B40A4C2468A3420BD0E0
:101CC0005B681944416013681B680360904200D050
:101CD00010605DF8044B70470460F7E7704700BF81
:101CE000D4020020D002002038B5044600F0A6FF40
:101CF0003B4B1B68ABB13B4B1B681C4214D1002C07
:101D000066D004F1080214F0070F02D022F0070297
:101D10000832D2B1344B1B6893421AD333490C6852
:101D20001DE0FFF77DFFE6E701F02AF80025FFF749
:101D300069FF15F0070F51D04FF0500383F311885E
:101D4000BFF36F8FBFF34F8FFEE701F019F8002547
:101D5000EDE701F015F80025E9E721461C46636828
:101D6000934202D22368002BF7D11D4B1B68A3427C
:101D700014D00D68083523680B6063689B1A102B1C
:101D800014D9A01810F0070F0CD04FF0500383F3B4
:101D90001188BFF36F8FBFF34F8FFEE700F0F0FFA6
:101DA0000025C4E743606260FFF76CFF62680E497C
:101DB0000B689B1A0B600E4909688B4201D20C49D3
:101DC0000B60084B1B68134363600023236000E033
:101DD000002500F0D5FF002DABD1A8E7284638BD7F
:101DE000D0020020C4020020CC020020D402002037
:101DF000C802002080B338B50446A0F1080550F8A9
:101E0000043C164A1268134208D14FF0500383F382
:101E10001188BFF36F8FBFF34F8FFEE750F8081C98
:101E200041B14FF0500383F31188BFF36F8FBFF3BD
:101E30004F8FFEE723EA020340F8043C00F0FEFE69
:101E400054F8041C064A13680B4413602846FFF735
:101E500019FF00F095FF38BD704700BFC402002095
:101E6000CC020020014B1868704700BFCC02002054
:101E70000B4B1B68B3F1FF3F08D04FF0500383F3C7
:101E80001188BFF36F8FBFF34F8FFEE74FF0500302
:101E900083F31188BFF36F8FBFF34F8FFEE700BF4F
:101EA0004000002006480068006880F3088862B699
:101EB00061B6BFF34F8FBFF36F8F00DF00BF00002D
:101EC00008ED00E04FF0807340F8043C21F0010180
:101ED00040F8081C054B40F80C3C40F8202C6FF0F3
:101EE000020340F8243C4438704700BF711E0008CC
:101EF000074B19680868B0E8F04F80F30988BFF312
:101F00006F8F4FF0000080F311887047AFF30080AF
:101F1000243001204FF0500383F31188BFF36F8FFB
:101F2000BFF34F8F0B4A136801331360012B00D0AE
:101F300070474FF0E023D3F8043D13F0FF0FF7D0C4
:101F40004FF0500383F31188BFF36F8FBFF34F8FB0
:101F5000FEE700BF40000020094B1B6843B94FF06B
:101F6000500383F31188BFF36F8FBFF34F8FFEE7EA
:101F7000013B034A13600BB983F31188704700BF1C
:101F800040000020000000000000000000000000F1
:101F9000EFF30980BFF36F8F154B1A681EF0100F17
:101FA00008BF20ED108A20E9F04F10604DF8043D85
:101FB0004FF0500080F31188BFF34F8FBFF36F8F46
:101FC00000F0A0FF4FF0000080F3118808BC1968F2
:101FD0000868B0E8F04F1EF0100F08BFB0EC108A90
:101FE00080F30988BFF36F8F704700BFAFF30080A5
:101FF0002430012008B54FF0500383F31188BFF35C
:102000006F8FBFF34F8F00F027FE28B14FF0E02312
:102010004FF08052C3F8042D002383F3118808BDCC
:10202000064B1B68064AA2FB03239B09013B4FF0AA
:10203000E022536107231361704700BF0C000020AA
:10204000D34D62104FF0E023D3F8002D344B9A4269
:102050001CD04FF0E023D3F8002D324B9A421ED013
:1020600010B582B0304B1A78D2B20192FF221A70AA
:102070001B78DBB28DF803309DF8033003F050037A
:102080002A4A13702A4B07221A601BE04FF05003B4
:1020900083F31188BFF36F8FBFF34F8FFEE74FF0CD
:1020A000500383F31188BFF36F8FBFF34F8FFEE7A9
:1020B0001F4A1368013B13609DF803305B00DBB2DD
:1020C0008DF803309DF8033013F0800FF0D1184ADB
:1020D00013681B02136003F4E0631360019BDBB21F
:1020E000114A13704FF0E024D4F8203D43F47003FC
:1020F000C4F8203DD4F8203D43F07043C4F8203D9F
:10210000FFF78EFF0B4B00221A60D4F8343F43F0E8
:102110004043C4F8343FFFF7C5FEFFF7A9FE00BFF8
:1021200071C20F4170C20F4100E400E0E02E0120B7
:10213000DC2E012040000020EFF305830F2B0FD988
:10214000114A9B5CDBB2114A12789A4208D94FF0CF
:10215000500383F31188BFF36F8FBFF34F8FFEE7F8
:102160004FF0E023D3F80C3D03F4E063084A126813
:10217000934208D94FF0500383F31188BFF36F8F58
:10218000BFF34F8FFEE77047F0E300E0E02E012041
:10219000DC2E012000F1080343604FF0FF32826023
:1021A000C36003610023036070470023036170472D
:1021B00043684B609A688A6051609960086103685F
:1021C00001330360704730B40D68B5F1FF3F11D0A3
:1021D00000F108031C465B681A68AA42FAD96368D2
:1021E0004B6099608C606160086103680133036033
:1021F00030BC70470469F2E70369416882688A600D
:10220000416851605A68824205D000220261186814
:1022100001381860704782685A60F6E710B50446C6
:10222000FFF778FEA26BE36B9A4204D00024FFF71D
:1022300093FE204610BD0124F9E710B50446FFF7D0
:1022400069FEA36B23B90124FFF786FE204610BD6B
:102250000024F9E770B504461546866B026C5AB93E
:1022600003681BB100200136A66370BD406800F012
:10227000E5FF00236360F6E76DB9806801F081FF38
:10228000A368226C1344A3606268934219D3236845
:10229000A3602846E7E7C06801F073FFE368226C9B
:1022A00051429B1AE3602268934202D263680B4456
:1022B000E360022D01D00020D5E726B1013E0020C9
:1022C000D1E72846CFE70020CDE70346026C6AB18C
:1022D00010B50846D9681144D9605C68A14201D3A1
:1022E0001968D960D96801F04CFF10BD704738B546
:1022F0000546FFF70FFE95F8454064B201E0013C4A
:1023000064B2002C0ADD6B6A43B105F1240000F0D1
:1023100093FE0028F3D000F02BFFF0E7FF2385F8B1
:102320004530FFF719FEFFF7F5FD95F8444064B21C
:1023300001E0013C64B2002C0ADD2B6943B105F1D8
:10234000100000F079FE0028F3D000F011FFF0E754
:10235000FF2385F84430FFF7FFFD38BD38B5E0B105
:102360000D460446FFF7D6FD2368E26B216C01FBA6
:10237000023060600020A063A360013A02FB0133D9
:10238000E360FF2384F8443084F84530FDB92369C5
:1023900063B9FFF7E1FD012038BD4FF0500383F32F
:1023A0001188BFF36F8FBFF34F8FFEE704F110006A
:1023B00000F042FE0028ECD04FF0E0234FF08052B6
:1023C000C3F8042DBFF34F8FBFF36F8FE1E704F124
:1023D0001000FFF7DFFE04F12400FFF7DBFED8E773
:1023E00038B51D46049C0B4649B92460E06323645C
:1023F00001212046FFF7B2FF84F84C5038BD22601F
:10240000F4E740B94FF0500383F31188BFF36F8FA7
:10241000BFF34F8FFEE7F0B583B00C461546064676
:1024200089B101FB00F05030FFF75EFC074638B180
:1024300000902B4600F1500221463046FFF7D0FFB6
:10244000384603B0F0BD0846EDE7F0B585B001921F
:1024500088B10F461D460446B1B1022D20D1E36B71
:10246000012B1DD04FF0500383F31188BFF36F8F02
:10247000BFF34F8FFEE74FF0500383F31188BFF394
:102480006F8FBFF34F8FFEE7036C002BE5D04FF04B
:10249000500383F31188BFF36F8FBFF34F8FFEE7B5
:1024A00000F06CFE064658B9019B002B48D04FF057
:1024B000500383F31188BFF36F8FBFF34F8FFEE795
:1024C00000263DE02A4639462046FFF7C3FE636AF0
:1024D0007BB948B14FF0E0234FF08052C3F8042D90
:1024E000BFF34F8FBFF36F8FFFF736FD012005B0AD
:1024F000F0BD04F1240000F09FFD0028F4D04FF05F
:10250000E0234FF08052C3F8042DBFF34F8FBFF389
:102510006F8FE9E7FFF720FD0020E8E702A800F051
:10252000D1FD012619E0002384F8443021E0002386
:1025300084F8453023E02046FFF7D9FE00F020FC68
:10254000FFF7E8FCA26BE36B9A42BBD3022DB9D034
:10255000019B002BDED0002EE0D0FFF7FDFC00F049
:102560006DFBFFF7D7FC94F8442052B2B2F1FF3F65
:10257000D9D094F8452052B2B2F1FF3FD7D0FFF73F
:10258000EBFC01A902A800F0B3FDD8B92046FFF783
:1025900045FE0028CFD0019904F1100000F018FD8D
:1025A0002046FFF7A4FE00F0EBFB0028C8D14FF057
:1025B000E0234FF08052C3F8042DBFF34F8FBFF3D9
:1025C0006F8FBDE72046FFF792FE00F0D9FB002099
:1025D0008DE72DE9F84390B10F4616461C46054697
:1025E000B1B1022C20D1EB6B012B1DD04FF0500369
:1025F00083F31188BFF36F8FBFF34F8FFEE74FF068
:10260000500383F31188BFF36F8FBFF34F8FFEE743
:10261000036C002BE5D04FF0500383F31188BFF318
:102620006F8FBFF34F8FFEE7FFF786FDEFF3118843
:102630004FF0500383F31188BFF36F8FBFF34F8FB9
:10264000AA6BEB6B9A4206D3022C04D0002088F3CD
:102650001188BDE8F88395F845904FFA89F922462C
:1026600039462846FFF7F6FDB9F1FF3F06D009F1DC
:1026700001035BB285F845300120E8E76B6A0BB9CE
:102680000120E4E705F1240000F0D6FC18B126B1E2
:1026900001203060DBE70120D9E70120D7E72DE9F1
:1026A000F04184B00192A0B10E4698460446C9B1EB
:1026B00000F064FD054608BB019B002B00F08780FD
:1026C0004FF0500383F31188BFF36F8FBFF34F8F29
:1026D000FEE74FF0500383F31188BFF36F8FBFF312
:1026E0004F8FFEE7036C002BE2D04FF0500383F3D3
:1026F0001188BFF36F8FBFF34F8FFEE7002566E0B1
:10270000E56831462046FFF7E0FDB8F1000F20D123
:102710007B1EA36323683BB123694BB9FFF71CFC05
:10272000012004B0BDE8F08100F0E0FD6060F3E757
:1027300004F1100000F080FC0028EFD04FF0E023FF
:102740004FF08052C3F8042DBFF34F8FBFF36F8F4C
:10275000E4E7E560636A002BE0D004F1240000F0B8
:102760006BFC0028DAD04FF0E0234FF08052C3F822
:10277000042DBFF34F8FBFF36F8FCFE7FFF7ECFB55
:102780000020CEE702A800F09DFC012529E00023EF
:1027900084F8443031E0002384F8453033E0FFF71B
:1027A000B9FB606800F0FAFCFFF7D6FB3BE020467F
:1027B000FFF79DFD00F0E4FA09E02046FFF797FDE2
:1027C00000F0DEFA2046FFF738FD002842D1FFF77F
:1027D000A1FBA76B002F93D1019B002BCED0002D26
:1027E000D0D0FFF7B9FB00F029FAFFF793FB94F87C
:1027F000442052B2B2F1FF3FC9D094F8452052B202
:10280000B2F1FF3FC7D0FFF7A7FB01A902A800F074
:102810006FFC0028D1D12046FFF70FFD0028C6D05D
:102820002368002BBBD0019904F1240000F0D0FBF9
:102830002046FFF75CFD00F0A3FA0028C7D14FF057
:10284000E0234FF08052C3F8042DBFF34F8FBFF346
:102850006F8FBCE7002064E70023072B0CD8074AE2
:1028600052F833200AB10133F7E7044A42F8331033
:1028700002EBC30250607047704700BFE42E012096
:1028800070B504460D461646FFF744FB94F84430F5
:102890005BB2B3F1FF3F0DD094F845305BB2B3F1BA
:1028A000FF3F0BD0FFF758FBA36B5BB12046FFF750
:1028B0001EFD70BD002384F84430EDE7002384F84A
:1028C0004530EFE73246294604F1240000F098FB3A
:1028D000ECE70000084B1B681B6823B9074B4FF05F
:1028E000FF321A607047044B1B68DB68DB685A686C
:1028F000024B1A60704700BF942F01202C2F01203B
:1029000010B50446006BFFF775FA2046FFF772FA20
:1029100010BD2DE9F04780460D4617469946089EA2
:10292000DDF824A00A9C9200A521206B01F09AFBFF
:10293000236B07F18042013A03EB820727F0070778
:102940004FF0000CBCF1090F09D815F90C3004EB5D
:102950000C0282F8343013B10CF1010CF2E70023C1
:1029600084F83D30042E00D90426E662A6640025D2
:10297000E564201DFFF719FC04F11800FFF715FCB2
:102980002461C6F10506A6616462256584F8545089
:102990004A4641463846FFF795FA2060BAF1000FE3
:1029A00001D0CAF80040BDE8F087000038B5002427
:1029B00007E004EB840293000E481844FFF7EAFB9B
:1029C0000134042CF5D90C4D2846FFF7E3FB0B4CE2
:1029D0002046FFF7DFFB0A48FFF7DCFB0948FFF75B
:1029E000D9FB0948FFF7D6FB084B1D60084B1C605C
:1029F00038BD00BFC02F0120AC2F0120982F01202F
:102A00007C2F0120682F0120502F0120942F0120BE
:102A1000902F012010B50446FFF77CFA224A136874
:102A200001331360214B1B685BB1214B1B686BB9F1
:102A30001E4B1B68DA6AE36A9A4207D81B4B1C607C
:102A400004E01A4B1C601368012B29D0194A136843
:102A5000013313602364E06A01238340164A11683E
:102A60000B43136000EB8000211D144B03EB80002F
:102A7000FFF79EFBFFF770FA0D4B1B687BB10B4B0A
:102A80001B68DA6AE36A9A4209D24FF0E0234FF0FA
:102A90008052C3F8042DBFF34F8FBFF36F8F10BD6B
:102AA000FFF784FFD2E700BF4C2F01202430012024
:102AB000402F0120302F0120442F0120C02F012062
:102AC00070B504460D461D4B1E681D4B186804303A
:102AD000FFF792FB48B91A4B1B68DB6A01229A4048
:102AE00018490B6823EA02030B60B4F1FF3F0DD0D5
:102AF0003444134B1B685C60A64210D9124B186813
:102B00000F4B19680431FFF75EFB70BD002DEFD04D
:102B10000B4B196804310D48FFF74AFBF5E70C4BE6
:102B20001868074B19680431FFF74DFB094B1B6808
:102B3000A342EAD9074B1C60E7E700BF482F0120FA
:102B400024300120442F0120902F0120502F0120FC
:102B5000942F01202C2F01202DE9F04385B007464A
:102B60000E4614461D469000FFF7BEF8F8B18146A8
:102B70005820FFF7B9F8804698B1C0F8309000238C
:102B8000039302900D9B01930C9B00932B462246CE
:102B900031463846FFF7BDFE4046FFF73BFF0120B8
:102BA00007E04846FFF726F94FF0FF3001E04FF00D
:102BB000FF3005B0BDE8F08300B583B0194B019339
:102BC00000230093822218491848FFF7C5FF012807
:102BD00005D0B0F1FF3F1BD003B05DF804FB00F05F
:102BE00015FC0128F5D14FF0500383F31188BFF392
:102BF0006F8FBFF34F8F0E4B4FF0FF321A600D4BAC
:102C000001221A600C4B00221A60FFF71BFAE3E75F
:102C10004FF0500383F31188BFF36F8FBFF34F8FD3
:102C2000FEE700BF282F012044530008D52E0008DE
:102C30002C2F0120402F0120482F0120024A136829
:102C400001331360704700BF242F0120014B186827
:102C5000704700BF482F0120F8B53E4B1B68002B82
:102C60006AD13D4B1D6801351D60C5B93B4B1B68E2
:102C70001B6843B14FF0500383F31188BFF36F8F8C
:102C8000BFF34F8FFEE7354A1168354B1868106067
:102C90001960344A136801331360FFF71BFE324B8F
:102CA0001B68AB423ED90027304B1B68DB6A03EB45
:102CB00083039A002E4B9B58012B00D901272D4BE3
:102CC0001B68002B3FD1FEF7A8FF3CE00127234BF8
:102CD0001B681B6843B3214B1B68DB68DC686368B7
:102CE0009D4226D3261D3046FFF786FAA36A1BB104
:102CF00004F11800FFF780FAE36A01229A401E49A6
:102D0000086802430A6003EB83039A0031461848BF
:102D10001044FFF74DFAE26A144B1B68DB6A9A42D3
:102D2000D4D2D4E70027D2E70F4B4FF0FF321A601E
:102D3000BAE70D4A1360B7E70E4A13680133136010
:102D4000FEF76BFF00270D4B1B6803B101273846C8
:102D5000F8BD00BF242F0120482F0120942F01200F
:102D6000902F0120342F01202C2F0120243001200E
:102D7000C02F01203C2F0120442F0120382F01209B
:102D800038B5354B1B6843B94FF0500383F31188B6
:102D9000BFF36F8FBFF34F8FFEE7FFF7BBF82E4BEC
:102DA0001A68013A1A601B68002B4FD12B4B1B6825
:102DB0000BB900244BE00024294B1B681BB3284BA4
:102DC000DB68DC6804F11800FFF716FA251D2846B9
:102DD000FFF712FAE06A01238340224A11680B438D
:102DE000136000EB800029461F4B03EB8000FFF7C8
:102DF000DFF9E26A1D4B1B68DB6A9A42DCD31C4B8D
:102E000001221A60D8E70CB1FFF764FD194B1C686A
:102E100084B9174B1C68D4B14FF0E0234FF08052B7
:102E2000C3F8042DBFF34F8FBFF36F8F01240EE063
:102E3000013C07D0FFF710FF0028F9D00C4B01220E
:102E40001A60F5E70B4B00221A60E2E70024FFF757
:102E500083F8204638BD00BF242F01204C2F0120CD
:102E60007C2F0120442F0120C02F0120243001207D
:102E7000382F01203C2F0120134B1B6813B310B5D2
:102E8000FFF7DCFE114B1C68FFF77AFF24B90E4BED
:102E90001B68002BF4D110BDFFF73CF80B4BDB682F
:102EA000DC68201DFFF7A8F9094A1368013B13608D
:102EB000054A1368013B1360FFF74EF82046FFF701
:102EC0001FFDE4E7704700BF642F0120682F012039
:102ED0004C2F012008B50BE04FF0E0234FF080525B
:102EE000C3F8042DBFF34F8FBFF36F8FFEF78CFE37
:102EF000FFF7C2FF024B1B68012BEDD8F6E700BFBE
:102F0000C02F012008B52D4B1B681BB12C4B012293
:102F10001A6008BD2A4B00221A602A4B1B681B6BE3
:102F20001A68B2F1A53F03D15A68B2F1A53F1BD090
:102F3000244B186819683431FEF765FE224B1B6874
:102F4000B3FA83F3DBB2C3F11F0303EB83018A00FF
:102F50001E498A588AB94FF0500383F31188BFF392
:102F60006F8FBFF34F8FFEE79A68B2F1A53FDFD1B5
:102F7000DB68B3F1A53FDBD1E0E7144803EB830145
:102F80008A00024451684968516003EB830C4FEAA0
:102F90008C0208320244914209D003EB83039A0069
:102FA0000A4B13445B68DA68064B1A60B1E748685D
:102FB00062469100054A0A445060EEE7242F012042
:102FC000382F012024300120442F0120C02F012060
:102FD00058B110B50C46094A11681831FFF7F3F8DB
:102FE00001212046FFF76CFD10BD4FF0500383F325
:102FF0001188BFF36F8FBFF34F8FFEE7243001209E
:1030000038B570B10D4614460A4A11681831FFF7F9
:10301000CFF80CB14FF0FF3521462846FFF750FDA1
:1030200038BD4FF0500383F31188BFF36F8FBFF3A8
:103030004F8FFEE72430012038B5C368DC6824B325
:1030400004F118052846FFF7D7F8184B1B682BBB6F
:10305000251D2846FFF7D0F8E06A01238340144A73
:1030600011680B43136000EB80002946114B03EB02
:103070008000FFF79DF8E26A0F4B1B68DB6A9A42FB
:1030800011D901200D4B186038BD4FF0500383F368
:103090001188BFF36F8FBFF34F8FFEE729460848B3
:1030A000FFF786F8E7E70020EEE700BF242F0120B6
:1030B000442F0120C02F012024300120382F01206F
:1030C0007C2F012030B1084A12680260074A12685A
:1030D000426070474FF0500383F31188BFF36F8F46
:1030E000BFF34F8FFEE700BF342F0120482F012090
:1030F00038B5C0B10C460546F1B1FEF70BFF1A4BCF
:103100001A682368B3F1FF3F27D028681749096878
:10311000884202D06968914224D96968501A834272
:1031200013D801241AE04FF0500383F31188BFF342
:103130006F8FBFF34F8FFEE74FF0500383F311887B
:10314000BFF36F8FBFF34F8FFEE7891A0B442360E5
:103150002846FFF7B7FF002400E00024FEF7FCFE3E
:10316000204638BD0124F9E7482F0120342F0120E3
:10317000014B01221A607047382F0120054B1B6854
:1031800033B1054B1B680BB100207047022070471C
:1031900001207047402F0120242F0120002845D016
:1031A00038B50446C36A224A1268D26A934214D2DE
:1031B0008269002A05DB1E4A1268D26AC2F1050242
:1031C0008261616903EB83031A4A02EB830399422C
:1031D00004D0174B1B68DB6AE36238BD251D284607
:1031E000FFF70AF890B1124B1B68D86AE06201231E
:1031F0008340114A11680B43136000EB800029469D
:103200000C4B03EB8000FEF7D3FFE6E7E36A03EB2A
:103210008301084A52F82120002AE4D101229A4071
:1032200005490B6823EA02030B60DCE7704700BF27
:1032300024300120C02F0120442F012000284BD032
:1032400038B50446264B1B68834208D04FF0500324
:1032500083F31188BFF36F8FBFF34F8FFEE7C36C0B
:1032600043B94FF0500383F31188BFF36F8FBFF35F
:103270004F8FFEE7013BC364C16A826C91422DD03F
:103280000BB1002038BD051D2846FEF7B5FF68B913
:10329000E36A03EB8301134A52F8212032B9012279
:1032A0009A4011490B6823EA02030B60A06CE062AC
:1032B000C0F10503A361012404FA00F30A4A11686E
:1032C0000B43136000EB80002946064B03EB8000A4
:1032D000FEF76EFF2046D5E7002070470020D1E7BB
:1032E00024300120C02F0120442F0120054B1B68F2
:1032F00023B1044B1A68D36C0133D364014B1868B3
:10330000704700BF24300120064B1A681368B3FAD7
:1033100083F35B09036013B9D36818687047002012
:10332000704700BF3830012008B54160006191420C
:103330000CD8D21A83699A4201D3012008BD011D1D
:10334000094B1868FEF73FFF0020F7E79A4201D2C9
:10335000994206D2011D054B1868FEF734FF002084
:10336000ECE70120EAE700BF3430012038300120CB
:1033700038B5FEF7CFFD0F4B1B6813B1FEF7ECFD20
:1033800038BD0D4D2846FEF705FF0C4C2046FEF7D4
:1033900001FF0B4B1D600B4B1C6000220C210A200F
:1033A000FFF72FF8034B18600028E7D00649FFF716
:1033B00053FAE3E730300120503001203C30012047
:1033C00038300120343001204C5300082DE9F04101
:1033D000079F41B94FF0500383F31188BFF36F8FFC
:1033E000BFF34F8FFEE7064615461C4688465FB181
:1033F000FFF7BEFF3E60C7F81880FD613C62069B88
:103400007B62381DFEF7D1FEBDE8F08100B583B0C8
:10341000FFF7AEFF0D4B1B685BB10D4B0193022311
:10342000009300234FF482720A490B48FFF794FB84
:1034300040B94FF0500383F31188BFF36F8FBFF390
:103440004F8FFEE703B05DF804FB00BF3030012072
:103450002C30012054530008513700082DE9F04169
:1034600082B00446884615461E462C20FEF73CFCDA
:10347000074640B10190089B009333462A464146D7
:103480002046FFF7A3FF384602B0BDE8F0810000F8
:10349000B8B19C4603461848006858B300B585B0DB
:1034A00001910292039305291CDCFFF767FE0228B5
:1034B00010D000231A4601A90F480068FEF7C5FF87
:1034C00015E04FF0500383F31188BFF36F8FBFF304
:1034D0004F8FFEE70023069A01A907480068FEF710
:1034E000B4FF04E00023624601A9FFF772F805B0BB
:1034F0005DF804FB002070473030012070B582B0C9
:103500001A4B1B681A6852B3DB681E68DC68251DFD
:103510002846FEF771FE636A20469847E369012B4F
:10352000EED1A36933449E4207D2636024612946E9
:103530000E4B1868FEF747FEE2E7002100910B46AC
:1035400032462046FFF7A4FF0028D9D14FF05003A0
:1035500083F31188BFF36F8FBFF34F8FFEE7044AE9
:10356000106802490860136002B070BD3830012055
:103570003430012038B50546FFF768FB0446074B99
:103580001B68834205D800232B60044B1C60204637
:1035900038BDFFF7B3FF01232B60F6E72830012089
:1035A00070B582B006460D4614490968C968CC68F2
:1035B000201DFEF721FEE169012904D0636A20463F
:1035C000984702B070BDA16933462A46314420466F
:1035D000FFF7AAFE0028F1D0002100910B463246E9
:1035E0002046FFF755FF0028E8D14FF0500383F342
:1035F0001188BFF36F8FBFF34F8FFEE73830012084
:1036000070B582B006460C46FFF718FB01A8FFF71D
:10361000B1FF019B23BB054644B9B0420CD3FFF771
:10362000AFFB29463046FFF7BBFF1BE00E4B1B6884
:103630001C68B4FA84F464092246711B0B4B1868A9
:10364000FFF71EF9FFF79CFB60B94FF0E0234FF046
:103650008052C3F8042DBFF34F8FBFF36F8F01E08B
:10366000FFF78EFB02B070BD3430012030300120F6
:1036700010B586B000231A4603A934480068FFF746
:103680000EF8002860D0039B002BF3DB059C6369D8
:1036900013B1201DFEF7B0FD02A8FFF76BFF039BDF
:1036A000092BE7D801A252F823F000BFD536000855
:1036B000D5360008D5360008753600081B370008D7
:1036C00041370008D5360008D536000875360008A1
:1036D0001B370008049BA169024619442046FFF7E6
:1036E00023FE0028C6D0636A20469847E369012B71
:1036F000C0D1A269002100910B46049802442046E3
:10370000FFF7C6FE0028B5D14FF0500383F31188B0
:10371000BFF36F8FBFF34F8FFEE70499A16131B103
:103720000346024601442046FFF7FEFDA2E74FF0A4
:10373000500383F31188BFF36F8FBFF34F8FFEE702
:103740002046FEF757FB95E706B010BD303001204C
:1037500000B583B001A8FFF7D7FD0199FFF750FF2F
:10376000FFF786FFF6E740B110B50446FEF7D2FB3F
:10377000246AFEF7F1FB204610BD4FF0500383F39F
:103780001188BFF36F8FBFF34F8FFEE753B94AB96C
:10379000002908BF00281CBF4FF0FF314FF0FF3059
:1037A00000F06AB9ADF1080C6DE904CE00F006F83E
:1037B000DDF804E0DDE9022304B070472DE9F047AD
:1037C000089D0E4604460F46002B4AD194468C4570
:1037D000B2FA82F260D942B1C2F12003974020FAD6
:1037E00003F30CFA02FC1F4394404FEA1C4E1FFAED
:1037F0008CF6B7FBFEF1230C0EFB117743EA07436F
:1038000001FB06F098420AD91CEB030301F1FF37D4
:1038100080F01581984240F21281023963441B1AEC
:10382000A4B2B3FBFEF00EFB103344EA034400FBEA
:1038300006F6A6420AD91CEB040400F1FF3380F01F
:103840000081A64240F2FD806444023840EA014013
:10385000A41B00211DB1D4400023C5E90043BDE8ED
:10386000F0878B4205D90DB1C5E90001002108465A
:10387000F5E7B3FA83F1002946D1B34202D382427D
:1038800000F2F580841A66EB030201201746002D32
:10389000E5D0C5E90047E2E7002A40F09380A1EBBC
:1038A0000C034FEA1C471FFA8CFE0121B3FBF7F60D
:1038B00007FB1630230C43EA00430EFB06F0984248
:1038C00008D91CEB030306F1FF3802D2984200F23C
:1038D000D08046461B1AA4B2B3FBF7F007FB1033A7
:1038E00044EA03440EFB00FEA64508D91CEB040481
:1038F00000F1FF3302D2A64500F2B6801846A4EBD1
:103900000E0440EA0640A5E7C1F120078B4022FAE9
:1039100007FC4CEA030C06FA01FE20FA07F426FA2B
:1039200007F344EA0E0400FA01F84FEA1C404FEA9C
:103930001449B3FBF0FE1FFA8CF600FB1E3349EA74
:1039400003430EFB06F9994502FA01F20BD91CEB71
:1039500003030EF1FF3A80F08580994540F28280A2
:10396000AEF1020E6344A3EB0909A4B2B9FBF0F374
:1039700000FB139944EA094403FB06F6A64208D962
:103980001CEB040403F1FF3068D2A64266D9023B67
:10399000644443EA0E40A41BA0FB02E6B442734613
:1039A000B14652D34FD05DB1B8EB030264EB0904CA
:1039B00004FA07F722FA01F31F43CC40C5E900746B
:1039C00000214CE7C2F1200120FA01F30CFA02FCBD
:1039D00026FA01F1964033434FEA1C471FFA8CFE4A
:1039E000B1FBF7F007FB1016190C41EA064100FB8A
:1039F0000EF68E4204FA02F408D91CEB010100F124
:103A0000FF382DD28E422BD902386144891B9BB2DC
:103A1000B1FBF7F607FB161143EA014306FB0EF173
:103A2000994208D91CEB030306F1FF3814D29942DE
:103A300012D9023E63445B1A46EA004136E7394632
:103A4000EDE6184602E7F045ADD2BEEB020366EBA9
:103A50000C060138B146A6E74646ECE7034698E770
:103A60004046D3E7D6467EE76444023847E7084637
:103A70000DE7023E63442DE7704700BF08B5064BD3
:103A8000044613B10021AFF30080044B1B6803B15F
:103A900098472046FDF724FA000000009C310120E1
:103AA00038B5104B1D682B6B0446B3B9182000F0D5
:103AB000C9FB0246286320B90B4B0C484621FDF791
:103AC0008FF90B490B4BC0E900130B4B83600B23A1
:103AD000838100210120C2E904012B6B00221C61BB
:103AE0005A6138BD500000206C5300088353000811
:103AF0000E33CDAB34126DE6ECDE0500164B10B57F
:103B00001C68236BB3B9182000F09CFB02462063AD
:103B100020B9124B12485221FDF762F91149124B9C
:103B2000C0E90013114B83600B2383810021012026
:103B3000C2E90401216B0E480B694C690D4A5843D8
:103B400002FB0400A3FB0232013340EB0200C1E997
:103B5000043020F0004010BD500000206C530008DD
:103B6000835300080E33CDAB34126DE6ECDE050056
:103B70002DF451582D7F954C002310B50446C0E913
:103B80000033C0E90433836081814366C28183616D
:103B9000194608225C3000F065FA0D4B63620D4B4C
:103BA000A3620D4BE3620D4B23630D4B24629C42D9
:103BB00006D003F16802944202D0D0339C4205D172
:103BC00004F15800BDE8104000F0CEBA10BD00BFAF
:103BD000453E0008673E00089F3E0008C33E0008BF
:103BE00064300120024A0349034800F069B800BF6D
:103BF00044000020054D00085400002041680C4B93
:103C0000994210B5044601D001F07CF8A168094B37
:103C1000994202D0204601F075F8E168064B9942BE
:103C200004D02046BDE8104001F06CB810BD00BFC4
:103C300064300120CC3001203431012010B50B4B11
:103C40000B4C0C4A1A60204600220421FFF794FF17
:103C500004F1680001220921FFF78EFF04F1D00072
:103C60000222BDE810401221FFF786BF9C310120DF
:103C700064300120E53B0008014800F076BA00BF3F
:103C8000A1310120014800F071BA00BFA13101202B
:103C900010B50446FFF7F0FF236A1BB1BDE81040E2
:103CA000FFF7F0BF044B2362044B1B68002BF5D1D8
:103CB000FFF7C4FFF2E700BFFD3B00089C31012085
:103CC0002DE9F8430746884614460026D4E90195B5
:103CD000B9F1010905D52468002CF7D13046BDE8BB
:103CE000F883AB89012B07D9B5F90E30013303D026
:103CF00029463846C04706436835E9E70FB407B59B
:103D0000064904AB086853F8042B8168019300F05E
:103D1000D1FC03B05DF804EB04B070475000002004
:103D2000036A70B5846805460E460BB9FFF7B0FF0D
:103D3000636EDB0705D4A389980502D4A06D00F05B
:103D400014FAA389190702D52369002B35D121461E
:103D5000284600F031F980B34FF0FF35636EDA0783
:103D600005D4A3899B0502D4A06D00F0FFF9284675
:103D700070BD002B04DAA2699A4217DC0A2915D01B
:103D800023685A1C22601970A36816F8011F013BB2
:103D9000A3600029EDD1002B11DA22460A21284622
:103DA00000F0CCF80130D7D00A25D7E722462846C4
:103DB00000F0C4F80130E7D1CEE7013EE4E7236824
:103DC0005A1C22600A221A70EEE70000024B0146DC
:103DD0001868FFF7A5BF00BF500000200CB430B535
:103DE000174B0C1E1D689DB008DA8B232B604FF01B
:103DF000FF301DB0BDE8304002B070474FF4027391
:103E0000ADF8143014BF04F1FF3323460493079335
:103E10004FF6FF7302900690ADF81630209A21AB52
:103E200002A92846019300F01FFB431CBCBF8B2353
:103E30002B60002CDDD0029B00221A70D9E700BF56
:103E40005000002010B50C46B1F90E1000F062F9D8
:103E50000028ABBF636DA3891B1823F48053ACBF4C
:103E60006365A38110BD2DE9F0411F468B89DB05F9
:103E700005460C46164605D5B1F90E100223002260
:103E800000F036F9A389B4F90E1023F48053A3810E
:103E900032463B462846BDE8F04100F04DB910B52A
:103EA0000C46B1F90E1000F023F9431CA38915BF8D
:103EB000606523F4805343F48053A38118BFA3812A
:103EC00010BDB1F90E1000F0F1B830B51446002C59
:103ED0009BB005461A4605DA8B2303604FF0FF308E
:103EE0001BB030BD4FF40273ADF80C3014BF04F1B9
:103EF000FF332346029305934FF6FF73009104911D
:103F0000ADF80E3069461E9B00F0AEFA431CBCBFF4
:103F10008B232B60002CE3D0009B00221A70DFE77C
:103F200007B5009313460A46014603480068FFF7A9
:103F3000CCFF03B05DF804FB50000020F8B50E463E
:103F40001446054618B1036A0BB9FFF7A1FEA36931
:103F5000A360A3891A0701D5236943B921462846DE
:103F600000F02AF818B14FF0FF373846F8BD236843
:103F70002269981A6369F6B28342374605DC214606
:103F8000284600F0BFFE0028EDD1A368013BA360E6
:103F900023685A1C22601E706269431C9A4204D036
:103FA000A389DB07E1D50A2EDFD12146284600F0A0
:103FB000A9FE0028D9D0D6E738B5294B05461868A0
:103FC0000C4618B1036A0BB9FFF762FEB4F90C3066
:103FD000190722D4DA0607D409222A6043F04003E5
:103FE000A3814FF0FF3033E0580712D5616B41B128
:103FF00004F14403994202D0284600F0D9F8002386
:104000006363A38923F02403A381002363602369EE
:104010002360A38943F00803A38123694BB9A389D3
:1040200003F42073B3F5007F03D02146284600F047
:10403000B7FEB4F90C3013F001020AD00022A260DE
:1040400062695242A261226942B913F08000C5D16F
:1040500038BD990758BF6269A260F4E70020F7E70E
:104060005000002002440346934200D1704703F8F9
:10407000011BF9E7DFB50C4B4FF0FF364FF0FF3770
:104080006946044600221868CDE9006700F01EF872
:104090000028B8BFCDE90067DDE900010CB1C4E933
:1040A000000104B0D0BD00BF5000002038B5064D5F
:1040B0000023044608462B60FDF792F8431C02D10A
:1040C0002B6803B1236038BDD401002038B5074DFB
:1040D00000230446084611462B60FDF7D4F8431C24
:1040E00002D12B6803B1236038BD00BFD40100208A
:1040F00038B5074D04460846114600222A601A4684
:10410000FDF728F8431C02D12B6803B1236038BDAA
:10411000D401002038B5074D044608461146002258
:104120002A601A46FCF7B0FF431C02D12B6803B18A
:10413000236038BDD401002038B5074D0446084639
:10414000114600222A601A46FDF718F8431C02D1D6
:104150002B6803B1236038BDD4010020014B1868DF
:10416000704700BF5000002070477047704710F83C
:10417000012B11F8013B012A28BF9A42F7D0D01A2F
:1041800070470A44914200F1FF3300D1704710B5E7
:1041900011F8014B03F8014F9142F9D110BD0346CC
:1041A00013F8012B002AFBD1181A013870470000C0
:1041B00038B50546002941D051F8043C0C1F002BAE
:1041C000B8BFE41800F0E8F81D4A136833B963601B
:1041D00014602846BDE8384000F0E4B8A34208D98E
:1041E000206821188B4201BF19685B68091821609B
:1041F000EDE71A465B680BB1A342FAD91168501873
:10420000A0420BD120680144501883421160E0D1D4
:1042100018685B68536008441060DAE702D90C2321
:104220002B60D6E7206821188B4204BF19685B68B1
:10423000636004BF091821605460CAE738BD00BF3D
:10424000A8310120024B0146186800F025B800BFD4
:104250005000002070B50F4E0C463168054611B96C
:1042600000F016FE30602146284600F011FE431C87
:1042700003D14FF0FF34204670BDC41C24F003046A
:10428000A042F8D0211A284600F002FE0130F2D1F7
:10429000EFE700BFA43101202DE9F843CD1C25F044
:1042A000030508350C2D38BF0C25002D064601DB13
:1042B000A94204D90C2333600020BDE8F883DFF85D
:1042C000D48000F069F8D8F800301C4644BB294679
:1042D0003046FFF7BFFF431C044658D1D8F80040D2
:1042E0002746002F43D1002C4BD023683946304657
:1042F00004EB030900F0CCFD814542D121686D1A21
:1043000029463046FFF7A6FF01303AD023682B44F8
:104310002360D8F800305A6862BBC8F800700FE01C
:104320002268521B20D40B2A17D96119A342256099
:1043300018BF5960636808BFC8F8001062514B602D
:10434000304600F02FF804F10B00231D20F0070089
:10435000C21A1CBF1B1AA350AFE76268A3420CBF6E
:10436000C8F800205A60EBE723466468AEE73C4695
:104370007F68B6E71A465B68A342FBD1002353600F
:10438000DEE70C233360304600F00CF894E705605C
:10439000D6E700BFA83101200148FFF7E6BE00BF05
:1043A000A03101200148FFF7E1BE00BFA03101208C
:1043B0002DE9F0478E681F46BE420B6882460C46C8
:1043C00090462DD8B1F90C2012F4906F26D0656973
:1043D000096905EB4505A3EB010905EBD5757B1CC8
:1043E0004B446D109D4238BF1D46530527D52946C5
:1043F000FFF752FF064660B321694A46FFF7C1FE48
:10440000A38923F4906343F08003A381266165614F
:104410004E44A5EB09052660A5603E46BE4200D984
:104420003E4620683246414600F0F6FCA3689B1BDE
:10443000A3602368334423600020BDE8F0872A4648
:1044400000F086FD06460028E0D121695046FFF7BE
:10445000AFFE0C23CAF80030A38943F04003A381C8
:104460004FF0FF30E9E700002DE9F04F98468B89C7
:104470001B069DB007460D46144610D50B6973B94F
:104480004021FFF709FF2860286130B90C233B6009
:104490004FF0FF301DB0BDE8F08F40236B6100236B
:1044A000099320238DF82930CDF80C803023DFF8D4
:1044B0009C818DF82A304FF0010923469A4613F863
:1044C000012B0AB1252AF9D1BAEB040B0BD05B46BC
:1044D000224629463846FFF76BFF013000F0A780DF
:1044E000099A5A4409929AF80030002B00F09F80F4
:1044F00000234FF0FF32CDE905230AF1010A0493AE
:1045000007938DF853301A935446052214F8011B73
:104510004E4800F0CDFC049AD8B9D00644BF202301
:104520008DF85330110744BF2B238DF853309AF880
:1045300000302A2B15D0079A544600204FF00A0C61
:10454000214611F8013B303B092B4BD9B0B1079202
:1045500014E0A0EB080309FA03F313430493A24603
:10456000D2E7039B191D1B680391002BBBBF5B4265
:1045700042F0020207930793B8BF049223782E2BD0
:104580000AD163782A2B32D1039B1A1D1B68039230
:1045900043EAE37302340593DFF8C0A021780322D5
:1045A000504600F085FC38B1049BA0EB0A00402285
:1045B000824013430134049314F8011B24488DF8FE
:1045C0002810062200F074FC002836D0214B1BBBBB
:1045D000039B073323F0070308330393099B3344FA
:1045E00009936AE70CFB02320C460120A8E700237E
:1045F0000134059319464FF00A0C204610F8012BA0
:10460000303A092A03D9002BC6D00591C4E70CFB28
:10461000012104460123F0E703AB00932A460E4B29
:1046200004A93846AFF30080421C0646D6D1AB89B8
:104630005B063FF52DAF09982CE703AB00932A46A4
:10464000054B04A9384600F0BBF9EDE7F853000824
:104650000254000800000000B1430008FE530008A7
:104660009368013B002B10B4936008DA9469A3426D
:1046700001DB0A2903D15DF8044BFFF75FBC136827
:10468000581C1060197008465DF8044B7047F8B567
:1046900006460F461446D518AC4201D1002007E06B
:1046A00014F8011B3A463046FFF7DAFF431CF3D1FA
:1046B000F8BD00002DE9F04F0D469DB01446984618
:1046C000064618B1036A0BB9FFF7E2FA6B6ED90719
:1046D00005D4AB899A0502D4A86DFFF746FDAB89D6
:1046E0001B0701D52B699BB929463046FFF764FCAF
:1046F00070B16B6EDC0704D54FF0FF301DB0BDE824
:10470000F08FAB899805F7D4A86DFFF72FFDF3E77D
:104710000023099320238DF82930CDF80C80302315
:10472000DFF8AC818DF82A304FF0010923469A4614
:1047300013F8012B0AB1252AF9D1BAEB040B0BD0DF
:104740005B46224629463046FFF7A1FF013000F0C4
:10475000A780099A5A4409929AF80030002B00F079
:104760009F8000234FF0FF32CDE905230AF1010AB3
:10477000049307938DF853301A935446052214F886
:10478000011B534800F094FB049AD8B9D10644BFEA
:1047900020238DF85330130744BF2B238DF853305B
:1047A0009AF800302A2B15D0079A544600204FF073
:1047B0000A0C214611F8013B303B092B4BD9B0B113
:1047C000079214E0A0EB080309FA03F313430493E0
:1047D000A246D2E7039B191D1B680391002BBBBFA8
:1047E0005B4242F0020207930793B8BF049223781A
:1047F0002E2B0AD163782A2B32D1039B1A1D1B68FA
:10480000039243EAE37302340593DFF8D4A02178DE
:104810000322504600F04CFB38B1049BA0EB0A0089
:104820004022824013430134049314F8011B2948A9
:104830008DF82810062200F03BFB00283FD0264BC5
:104840001BBB039B073323F0070308330393099B28
:104850003B4409936AE70CFB02320C460120A8E7AF
:1048600000230134059319464FF00A0C204610F836
:10487000012B303A092A03D9002BC6D00591C4E791
:104880000CFB012104460123F0E703AB00932A4609
:10489000124B04A93046AFF300800746781CD6D1EE
:1048A0006B6ED90705D4AB899A0502D4A86DFFF7C2
:1048B0005DFCAB895B063FF51FAF09981EE703ABB4
:1048C00000932A46054B04A9304600F079F8E4E746
:1048D000F853000802540008000000008F4600084A
:1048E000FE5300082DE9F047164698468A680B6982
:1048F000DDF820909342B8BF1346336091F843200F
:1049000007460C460AB1013333602368990642BF5B
:10491000336802333360256815F0060506D104F1CB
:10492000190AE36832689B1AAB4226DC94F84330DC
:104930002268003B18BF012392062BD404F14302E6
:1049400041463846C84701301ED02368226903F02B
:104950000603042B02BFE5683368ED1AA3680CBF99
:1049600025EAE57500259342C4BF9B1AED18002681
:104970001A34B5421AD1002008E0012352464146BC
:104980003846C847013003D14FF0FF30BDE8F0870B
:104990000135C6E7E1185A1C302081F84300224453
:1049A00094F8451082F843100233C7E701232246EA
:1049B00041463846C8470130E6D00136D9E7000005
:1049C0002DE9FF470F7E0C9E782F914680460C46BE
:1049D0009A4601F1430207D8622F0AD8002F00F04F
:1049E000D180582F00F0B88004F1420684F842705C
:1049F0003AE0A7F16303152BF6D801A151F823F093
:104A0000594A00086D4A0008E9490008E9490008C8
:104A1000E9490008E94900086D4A0008E949000829
:104A2000E9490008E9490008E94900086B4B00081A
:104A3000974A0008254B0008E9490008E9490008A1
:104A40008D4B0008E9490008974A0008E949000829
:104A5000E94900082D4B000833681A1D1B683260B5
:104A600004F1420684F8423001239CE03368206858
:104A7000191D3160060601D51D6803E04506FBD50A
:104A8000B3F90050002D03DA2D236D4284F8433032
:104A900058480A2311E021683368080653F8045B7C
:104AA00002D4490648BFADB26F2F5248336014BFDD
:104AB0000A230823002184F843106668A660002EAC
:104AC00005DB21682E4321F0040121604BD01646FE
:104AD000B5FBF3F103FB1157C75D06F8017D2F46C7
:104AE000BB420D46F4D9082B0BD12368DF0708D54C
:104AF000236961689942DEBF302306F8013C06F164
:104B0000FF36921B2261CDF800A04B4603AA214636
:104B10004046FFF7E7FE01304AD14FF0FF3004B0C6
:104B2000BDE8F087236843F02003236032487827EC
:104B300084F84570236831681F0651F8045B02D47D
:104B40005F0648BFADB23160D90744BF43F02003D0
:104B500023601DB11023ADE72648E9E7236823F061
:104B600020032360F6E71646BDE7336825686169D0
:104B7000181D30602E061B6801D5196002E068061A
:104B8000FBD51980002323611646BCE733681A1D44
:104B900032601E6862680021304600F089F908B171
:104BA000801B606063682361002384F84330AAE7B8
:104BB0002369324649464046D0470130ADD023688C
:104BC0009B0713D4E068039B9842B8BF1846A6E73A
:104BD0000123324649464046D04701309DD0013539
:104BE000E36803995B1AAB42F2DCEBE7002504F1C2
:104BF0001906F5E7095400081A540008B1F90C2009
:104C00002DE9F041160705460C4654D44B68002B9D
:104C100002DC0B6C002B48DDE66A002E45D0002339
:104C200012F480522F68216A2B6030D0626DA38904
:104C3000590705D56368D21A636B0BB1236CD21A7E
:104C40000023E66A216A2846B047431CA38906D19F
:104C500029681D292BD82A4ACA40D60727D5002201
:104C60006260D9042269226004D5421C01D12B68FC
:104C700003B96065616B2F60B9B104F144039942D7
:104C800002D02846FFF794FA002363630DE0012366
:104C90002846B0470246501CC9D12B68002BC6D00D
:104CA0001D2B01D0162B1ED12F60002022E043F0D7
:104CB00040031BB21BE00F69002FF6D093070E686C
:104CC00008BF4B690F6018BF0023A6EB07088B6075
:104CD000B8F1000FE9DD216AA66A43463A46284644
:104CE000B047002808DCB4F90C3043F04003A3813E
:104CF0004FF0FF30BDE8F0810744A8EB0008E7E77C
:104D00000100402038B50B6905460C4613B9002553
:104D1000284638BD18B1036A0BB9FEF7B9FFB4F9DC
:104D20000C30002BF3D0626ED00704D4990502D466
:104D3000A06DFFF71AFA28462146FFF75FFF636E62
:104D4000DA070546E4D4A3899B05E1D4A06DFFF7FB
:104D50000DFADDE770B50C46B1F90E10002996B0DA
:104D600015461E460DDAA38913F0800F4FF000019F
:104D700014BF40234FF48063002031602B6016B0D5
:104D800070BD6A4600F062F80028ECDB019901F47E
:104D90007041A1F50053594259414FF48063EBE74C
:104DA0008B89F7B59D0706460C4607D504F14703E6
:104DB000236023610123636103B0F0BD01AB6A4648
:104DC000FFF7C8FF009F054639463046FFF764FAF3
:104DD00048B9B4F90C309A05EED423F0030343F03C
:104DE0000203A381E2E7A389206043F08003A3814B
:104DF000019BC4E904075BB1B4F90E10304600F022
:104E000037F828B1A38923F0030343F00103A381FA
:104E1000A3891D43A581CFE7884210B501EB0204A9
:104E200002D98442234607D8431EA14208D011F874
:104E3000012B03F8012FF8E7024401468A4200D112
:104E400010BD13F8014D02F8014DF7E738B5074DD5
:104E500000230446084611462B60FCF707FA431C62
:104E600002D12B6803B1236038BD00BFD4010020FC
:104E700038B5064D0023044608462B60FCF717FAA8
:104E8000431C02D12B6803B1236038BDD40100203C
:104E900038B5064D0023044608462B60FBF7C4FFD7
:104EA000431C02D12B6803B1236038BDD40100201C
:104EB00001F0FF01102A2BDB10F0070F08D010F8CB
:104EC000013B013A8B422DD010F0070F42B3F6D1CF
:104ED000F0B441EA012141EA014122F007047FF0E8
:104EE00000070023F0E80256083C85EA010586EA3F
:104EF000010685FA47F5A3FA87F586FA47F6A5FA7B
:104F000087F68EB9EED1F0BC01F0FF0102F0070286
:104F100032B110F8013B013A83EA010313B1F8D131
:104F20000020704701387047002D06BF3546033812
:104F3000073815F0010F07D1013015F4807F02BF4B
:104F4000013015F4C03F0130F0BC0138704700BF9C
:104F50002DE9F041074614460D4621B9BDE8F04160
:104F60001146FFF799B92AB9FFF722F925462846D5
:104F7000BDE8F08100F01AF88442064602D8B4EB8E
:104F8000500FF4D821463846FFF786F9804608B915
:104F90004546ECE7B4422246294628BF3246FFF791
:104FA000F0F829463846FFF703F9F1E751F8043CD9
:104FB000181F002BBCBF0B58C01870472E2E2F7324
:104FC000797374656D2F7372632F73746D333266EA
:104FD000342D68616C2F73746D3332663478785F6A
:104FE00068616C5F636F727465782E630000000007
:104FF0002E2E2F73797374656D2F7372632F7374F4
:105000006D333266342D68616C2F73746D33326684
:105010003478785F68616C5F7263632E63000000B0
:105020002C2066756E6374696F6E3A200000000074
:10503000617373657274696F6E2022257322206616
:1050400061696C65643A2066696C6520222573226B
:105050002C206C696E65202564257325730A000079
:1050600061626F727428292C2065786974696E6793
:105070002E2E2E003A747400537461636B20667296
:10508000616D653A0A000000205230203D20202545
:105090003038580A00000000205231203D202025E1
:1050A0003038580A00000000205232203D202025D0
:1050B0003038580A00000000205233203D202025BF
:1050C0003038580A0000000020523132203D20259F
:1050D0003038580A00000000204C52203D20202586
:1050E0003038580A00000000205043203D20202581
:1050F0003038580A0000000020505352203D20252F
:105100003038580A000000004653522F4641523AA8
:105110000A0000002043465352203D20202530380D
:10512000580A00002048465352203D2020253038A0
:10513000580A00002044465352203D202025303894
:10514000580A00002041465352203D202025303887
:10515000580A0000204D4D464152203D2025303850
:10516000580A00002042464152203D202025303878
:10517000580A00004D6973630A000000204C522F4A
:105180004558435F52455455524E3D2025303858BE
:105190000A0000005B486172644661756C745D0AC8
:1051A000000000005B4275734661756C745D0A0017
:1051B0005B55736167654661756C745D0A0000003C
:1051C00057726F6E6720706172616D65746572737E
:1051D0002076616C75653A2066696C6520257320C0
:1051E0006F6E206C696E652025640D0A000000005A
:1051F00054696D6520697320256C750047616D6584
:10520000204F7665720000005374696C6C20676FE4
:10521000696E67002D2D2D2D2D2D2053746174691D
:105220007374696373202D2D2D2D2D2D000000002A
:10523000546F74616C2073656E7420616E642062BB
:105240006C6F636B6564206D657373616765732054
:1052500062792053656E6465722025643A0A205392
:10526000656E743A20256420426C6F636B65643A06
:1052700020256420616E6420617665726167652017
:10528000706572696F643A2025640A00546F746116
:105290006C207375636365737366756C6C792073CA
:1052A000656E7420616E6420626C6F636B65642050
:1052B0006D657373616765733A200A2053656E7478
:1052C0003A20256420426C6F636B65643A20256444
:1052D0000A200000546F74616C2072656365697602
:1052E0006564206D657373616765733A2025640A90
:1052F000000000002D2D2D2D2D2D2D2D2D2D2D2D92
:105300002D2D2D2D2D2D2D2D2D2D2D2D0000000081
:1053100053656E64657225640000000053656E6419
:10532000657254696D657200526563656976657270
:1053300000000000526563656976657254696D65A9
:105340007200000049444C4500000000546D725149
:1053500000000000546D72205376630000000000CE
:105360000000000001020304060708095245454EEB
:1053700054206D616C6C6F63207375636365656445
:105380006564002F5F5F772F61726D2D6E6F6E65A4
:105390002D656162692D6763632D787061636B2F82
:1053A00061726D2D6E6F6E652D656162692D67632B
:1053B000632D787061636B2F6275696C642F7769F8
:1053C0006E33322D7836342F736F75726365732F99
:1053D0006E65776C69622D63796777696E2F6E658C
:1053E000776C69622F6C6962632F7374646C696295
:1053F0002F72616E642E6300232D302B2000686CA9
:105400004C006566674546470030313233343536E7
:105410003738394142434445460030313233343520
:1054200036373839616263646566000020202020C9
:105430002020202020282828282820202020202044
:105440002020202020202020202020208810101024
:10545000101010101010101010101010040404047C
:1054600004040404040410101010101010414141F1
:10547000414141010101010101010101010101015C
:1054800001010101010101101010101010424242EF
:10549000424242020202020202020202020202022C
:1054A000020202020202021010101020000000008E
:1054B00000000000000000000000000000000000EC
:1054C00000000000000000000000000000000000DC
:1054D00000000000000000000000000000000000CC
:1054E00000000000000000000000000000000000BC
:1054F00000000000000000000000000000000000AC
:10550000000000000000000000000000000000009B
:10551000000000000000000000000000000000008B
:10552000000000000000000000000000100000006B
:1055300000000000017A5200027C0E011B0C0D00DD
:10554000100000001800000056ECFFFF10000000E3
:10555000000000001000000000000000017A52006E
:10556000027C0E011B0C0D0038000000180000002A
:1055700040F9FFFF9E00000000510E1084048503D7
:10558000860287015BC7C6C5C40E004C0A420B0ADF
:10559000420B0E10840485038602870151C7C6C5DD
:0455A000C40E000035
:0855A40018E2FF7F0100000086
:1055AC007856341201FFFFFF100000000024F400B5
:1055BC0096000000C8000000FA0000002C0100005A
:1055CC005E0100009001000032000000500000005D
:1055DC006E0000008C000000AA000000C800000053
:1055EC00AAAAAAAA0000000003000000643001204F
:1055FC00540000200000000064300120CC30012059
:10560C003431012000000000000000000000000008
:10561C00000000000000000000000000000000007E
:10562C00000000000000000000000000000000006E
:10563C00000000000000000000000000000000005E
:04564C0032547698C6
:040000050800018965
:00000001FF
